:100000000C942A000C9451030C943C000C943C007A
:100010000C943C000C943C000C943C000C943C0070
:100020000C943C000C943C000C943C000C943C0060
:100030000C943C000C943C000C943C000C943C0050
:100040000C943C000C943C000C943C000C943C0040
:100050000C943C0011241FBECFE5D8E0DEBFCDBF1D
:1000600020E0A0E6B0E001C01D92A836B207E1F79B
:100070000E94EF030C94F4030C9400008091620042
:10008000813071F560E081E40E947B0162E082E4EE
:100090000E947B0141E060E081E40E948D0160E00C
:1000A00081E40E9482010E94D40162E082E40E9405
:1000B000820160E081E40E947B0162E082E40E94B0
:1000C0007B0142E060E082E40E948D0162E082E414
:1000D0000E9482010E94C10160E081E40E947B01D4
:1000E00080916100813031F50E94D40160E081E4AB
:1000F0000E94820162E082E40E947B010E94C101B1
:1001000060E081E40E9482010E94D40162E082E406
:100110000E94820162E082E40E947B0160E081E44F
:100120000E947B010E94C10162E082E40E94820180
:100130000E94C10180916000813041F50E94D4018C
:1001400062E081E40E94820160E082E40E94820118
:1001500060E081E40E947B0162E082E40E947B0116
:100160000E94C10160E081E40E9482010E94D401EA
:1001700062E082E40E94820162E082E40E947B01EC
:1001800060E082E40E947B010E94C101089560E06A
:1001900081E40E94740161E081E40E94740162E0E4
:1001A00081E40E94740160E082E40E94740161E0D5
:1001B00082E40E94740162E082E40E94740162E0C1
:1001C00084E40E94650168EE80E00E947A0380E08A
:1001D0000E94A3030E94E3038EE390E00E94ED03DC
:1001E0000E94270382E00E942C030E946C01089564
:1001F000CF93DF9360E081E40E947B0162E081E4C1
:100200000E9482012FEF81E19AE7215080409040C7
:10021000E1F700C00000C0E0D0E01BC061E081E475
:100220000E947B012FEF84E39CE0215080409040AE
:10023000E1F700C0000061E081E40E9482012FEF3D
:1002400084E39CE0215080409040E1F700C0000032
:100250002196C530D10514F360E081E40E9482014B
:1002600062E081E40E947B0160E081E40E948201FF
:100270002FEF81E19AE7215080409040E1F700C0E4
:100280000000C0E0D0E01BC061E081E40E947B017F
:100290002FEF84E39CE0215080409040E1F700C0C4
:1002A000000061E081E40E9482012FEF84E39CE082
:1002B000215080409040E1F700C000002196C530F9
:1002C000D10514F3DF91CF910895462F682F80E078
:1002D0000E94F90180E0089582E00E942C0362E010
:1002E00084E40E9465010895462F682F81E00E94F2
:1002F000F90180E00895462F682F81E00E94740282
:1003000080E00895462F682F80E00E94740280E00C
:1003100008950E94EF0280E00895CF93DF9341306B
:1003200091F0423029F129C061E081E40E94890105
:100330002FEF80E792E0215080409040E1F700C02D
:100340000000219602C0C0E0D0E0CA30D10564F3BD
:1003500014C061E082E40E9489012FEF80E792E0FF
:10036000215080409040E1F700C00000219602C07B
:10037000C0E0D0E0CA30D10564F380E0DF91CF91D6
:10038000089560EA80E00E947A0384E00E94A3035B
:100390000E94E303809167008130E1F710926700CB
:1003A0000E94A00380E0089560EA80E00E947A0342
:1003B00084E00E94A3030E94E3030AC041E061E0DD
:1003C00081E40E948D0142E061E082E40E948D019F
:1003D00008B600FEF3CF0E94A0030E94E80361E08C
:1003E00081E40E94820161E082E40E94820180E057
:1003F0000895623431F118F4613439F073C0633414
:10040000E1F1643409F454C06DC081110CC02AB309
:1004100081E090E002C0880F991F4A95E2F780952D
:1004200082238ABB5FC0813009F05CC02AB381E0BF
:1004300090E002C0880F991F4A95E2F7822B8ABB91
:1004400051C081110CC027B381E090E002C0880F39
:10045000991F4A95E2F78095822387BB43C081307C
:1004600009F040C027B381E090E002C0880F991FD7
:100470004A95E2F7822B87BB35C081110CC024B3AB
:1004800081E090E002C0880F991F4A95E2F78095BD
:10049000822384BB27C0813029F524B381E090E01A
:1004A00002C0880F991F4A95E2F7822B84BB1AC0BD
:1004B00081110CC021B381E090E002C0880F991F28
:1004C0004A95E2F78095822381BB0CC0813051F4BC
:1004D00021B381E090E002C0880F991F4A95E2F7AE
:1004E000822B81BB80E00895623431F118F46134CD
:1004F00039F073C06334E1F1643409F454C06DC061
:1005000081110CC02BB381E090E002C0880F991FCD
:100510004A95E2F7809582238BBB5FC0813009F05A
:100520005CC02BB381E090E002C0880F991F4A9510
:10053000E2F7822B8BBB51C081110CC028B381E044
:1005400090E002C0880F991F4A95E2F780958223B8
:1005500088BB43C0813009F040C028B381E090E0FF
:1005600002C0880F991F4A95E2F7822B88BB35C0DD
:1005700081110CC025B381E090E002C0880F991F63
:100580004A95E2F78095822385BB27C0813029F503
:1005900025B381E090E002C0880F991F4A95E2F7E9
:1005A000822B85BB1AC081110CC022B381E090E080
:1005B00002C0880F991F4A95E2F78095822382BB7B
:1005C0000CC0813051F422B381E090E002C0880F6A
:1005D000991F4A95E2F7822B82BB80E0089582340E
:1005E000A1F018F4813431F030C08334C9F0843480
:1005F00011F12BC02BB381E090E002C0880F991F4E
:100600006A95E2F782278BBB20C028B381E090E097
:1006100002C0880F991F6A95E2F7822788BB15C030
:1006200025B381E090E002C0880F991F6A95E2F738
:10063000822785BB0AC022B381E090E002C0880F08
:10064000991F6A95E2F7822782BB80E008958BB7F5
:1006500080648BBF80E00895813069F028F082309B
:1006600089F08330B1F01BC085B78E7F85BF85B719
:100670008D7F85BF14C085B7816085BF85B78D7FAD
:1006800085BF0DC085B78E7F85BF85B7826085BF6A
:1006900006C085B7816085BF85B7826085BF80E071
:1006A00008951F920F920FB60F9211242F933F932C
:1006B0004F935F936F937F938F939F93AF93BF936A
:1006C000EF93FF93E0916300F0916400309709F09D
:1006D0000995FF91EF91BF91AF919F918F917F917C
:1006E0006F915F914F913F912F910F900FBE0F909F
:1006F0001F901895813069F028F0823089F083309E
:10070000B1F01BC083B78F7B83BF83B7877F83BF65
:1007100014C083B7806483BF83B7877F83BF0DC056
:1007200083B78F7B83BF83B7886083BF06C083B7DF
:10073000806483BF83B7886083BF62BF80E0089511
:1007400013BE80E008958230F9F028F4882341F048
:10075000813081F036C0833009F1843049F131C0F5
:1007600083B7816083BF83B78D7F83BF83B78B7F60
:1007700083BF27C083B78E7F83BF83B7826083BF69
:1007800083B78B7F83BF1DC083B7816083BF83B76F
:10079000826083BF83B78B7F83BF13C083B78E7F95
:1007A00083BF83B78D7F83BF83B7846083BF09C056
:1007B00083B7816083BF83B78D7F83BF83B7846036
:1007C00083BF80E0089589B7816089BF80E0089584
:1007D00088B7816088BF80E0089580E008950E9416
:0C07E000C7000E94F800FDCFF894FFCF86
:00000001FF
